:100000000C9453000C947B000C947B000C947B00AC
:100010000C947B000C947B000C947B000C947B0074
:100020000C947B000C947B000C947B000C947B0064
:100030000C947B000C947B000C947B000C947B0054
:100040000C946B010C947B000C9426030C946903B4
:100050000C947B000C947B000C947B000C947B0034
:100060000C947B000C947B0001020408102040805B
:1000700001020408102001020408102004040404F2
:100080000404040402020202020203030303030342
:1000900000000000250028002B00000000002400C4
:1000A00027002A00250411241FBECFEFD8E0DEBFB1
:1000B000CDBF11E0A0E0B1E0E2E0F2E102C00590C6
:1000C0000D92A635B107D9F712E0A6E5B1E001C05F
:1000D0001D92A731B107E1F710E0C6EAD0E004C0F5
:1000E0002297FE010E94FB08C43AD107C9F70E947B
:1000F0007B040C94C4080C94000040E855E260E0D6
:1001000070E08BE691E00E94A40361E08DE00E9424
:10011000520265E071E08BE691E00C941B050F93B1
:100120001F93CF93DF93EC018B016BE071E00E9492
:100130000F06083C110518F460E171E007C0095C86
:100140001109073C110528F466E171E0CE010E9417
:100150004D06CE01DF91CF911F910F9108950F931E
:100160001F93CF93DF93CDB7DEB72E970FB6F894DA
:10017000DEBF0FBECDBF8EE00E944A0190936101A9
:1001800080936001009709F47AC00E94B5016093E2
:100190005601709357018093580190935901009133
:1001A0005A0110915B0120915C0130915D01601753
:1001B00071078207930721F09B01201B310B02C0BE
:1001C00020E030E030935F0120935E0160935A019C
:1001D00070935B0180935C0190935D01293E3340F5
:1001E00080F010925F0110925E016DE171E08BE68C
:1001F00091E00E941B0569E271E08BE691E00E94AC
:100200001B0560915E0170915F01CE0108960E940E
:100210008F00BE01685F7F4FCE0101960E944306AA
:1002200066E371E0CE0101960E949306BC018BE665
:1002300091E00E94C604CE0101960E949E05CE0167
:1002400008960E949E0569E371E08BE691E00E94AA
:10025000FC0460915E0170915F014AE050E08BE622
:1002600091E00E94980563E471E08BE691E00E94C2
:100270001B0562E370E080E090E00E94F1012E96A1
:100280000FB6F894DEBF0FBECDBFDF91CF911F91A7
:100290000F9108958E3008F08E50877020910001E4
:1002A00040E4249F90011124822B80937C00809154
:1002B0007A00806480937A0080917A0086FDFCCF7A
:1002C0002091780030917900932F80E0AC01422B8F
:1002D0009A01C90108951F920F920FB60F9211242F
:1002E0002F933F938F939F93AF93BF93809162011E
:1002F00090916301A0916401B091650130916A0110
:10030000232F2D5F2D3720F40196A11DB11D05C0AF
:10031000232F2A570296A11DB11D20936A018093B5
:10032000620190936301A0936401B0936501809191
:10033000660190916701A0916801B09169010196F1
:10034000A11DB11D8093660190936701A093680180
:10035000B0936901BF91AF919F918F913F912F9180
:100360000F900FBE0F901F9018950F931F938FB78C
:10037000F894009162011091630120916401309121
:1003800065018FBFB801C9011F910F9108950F93A7
:100390001F939FB7F8940091660110916701209117
:1003A00068013091690186B5A89B06C08F3F21F096
:1003B0000F5F1F4F2F4F3F4F9FBF322F212F102F07
:1003C0000027080F111D211D311D42E0000F111FD4
:1003D000221F331F4A95D1F7B801C9011F910F9110
:1003E0000895CF92DF92EF92FF92CF93DF936B014C
:1003F0007C010E94C701EB010EC00E94C7016C1B6B
:100400007D0B683E734038F081E0C81AD108E108DE
:10041000F108C851DC4FC114D104E104F10469F7BB
:10042000DF91CF91FF90EF90DF90CF900895789477
:1004300084B5826084BD84B5816084BD85B58260E9
:1004400085BD85B5816085BDEEE6F0E08081816087
:100450008083E1E8F0E01082808182608083808187
:1004600081608083E0E8F0E0808181608083E1EB5F
:10047000F0E0808184608083E0EBF0E08081816047
:100480008083EAE7F0E080818460808380818260FD
:1004900080838081816080838081806880831092E6
:1004A000C1000895CF93DF9390E0FC01E859FF4F1E
:1004B0004491FC01E458FF4F8491882341F190E07E
:1004C000880F991FFC01E656FF4F25913491D90101
:1004D00080579F4FFC0185919491C82FD92F9FB7CA
:1004E000F8948C91611106C0409584238C93888187
:1004F000842308C0623041F4242F209582238C93FA
:100500008881842B888302C0842B8C939FBFDF91CA
:10051000CF910895FC0184859585FC01E05CFF4F37
:1005200020813181FC01EE5BFF4F80819181281B8E
:10053000390B2F733327C9010895FC0184859585F4
:10054000FC01E05CFF4F40815181FC01EE5BFF4FFD
:10055000208131814217530741F00190F081E02D55
:10056000E80FF91F208130E002C02FEF3FEFC901F3
:100570000895FC0184859585FC01E05CFF4F408176
:100580005181FC01EE5BFF4F2081318142175307FF
:1005900081F0A081B181A80FB91F8C912081318198
:1005A0002F5F3F4F2F73332731832083282F30E075
:1005B00002C02FEF3FEFC9010895FC0181A18823FC
:1005C00029F0A489B5898C9186FFFBCF11A20895EB
:1005D000CF93DF93FC0126853785D901A05CBF4FFF
:1005E0008D919C91119701968F739927E901CE5BAC
:1005F000DF4F4881598184179507D9F30D90BC913D
:10060000A02DA20FB31F6C93A685B785A05CBF4F2A
:1006100011969C938E93A689B7892C9181E090E0E6
:10062000078C02C0880F991F0A94E2F7282B2C939D
:1006300081E081A30488F589E02D80818064808336
:1006400081E090E0DF91CF91089508951F920F927D
:100650000FB60F9211242F933F934F938F939F9335
:10066000EF93FF938091C00082FD1CC04091C600B3
:10067000809111029091120201968F739927209117
:100680001302309114028217930771F0E091110266
:10069000F0911202EF52FE4F40839093120280932A
:1006A000110202C08091C600FF91EF919F918F913E
:1006B0004F913F912F910F900FBE0F901F90189563
:1006C0008BE691E00E948A02892B11F00C9425039D
:1006D00008951F920F920FB60F9211242F933F93FC
:1006E0008F939F93EF93FF932091CD013091CE0193
:1006F0008091CF019091D0012817390731F4809172
:10070000C1008F7D8093C10014C0E091CF01F091B2
:10071000D001E357FE4F20818091CF019091D0010D
:1007200001968F7399279093D0018093CF012093E6
:10073000C600FF91EF919F918F913F912F910F9064
:100740000FBE0F901F901895CF92DF92EF92FF92FD
:10075000CF93DF93EC016A017B01411581EE5807CD
:1007600061057105F9F0EC89FD8981E090E008A050
:1007700002C0880F991F0A94E2F7808360E079E055
:100780008DE390E0A70196010E94D708215031091E
:10079000410951095695479537952795211580E1CF
:1007A000380798F0EC89FD89108260E874E88EE1E2
:1007B00090E0A70196010E94D70821503109410914
:1007C00051095695479537952795E889F9893083DA
:1007D000EA89FB89208319A2EE89FF89408181E0A3
:1007E00090E09C010C8C02C0220F331F0A94E2F7A8
:1007F000422B4083EE89FF8940819C010D8C02C011
:10080000220F331F0A94E2F7422B4083EE89FF89BF
:1008100040819C010E8C02C0220F331F0A94E2F724
:10082000422B4083EE89FF8920810F8C02C0880F04
:10083000991F0A94E2F7809582238083DF91CF91FC
:10084000FF90EF90DF90CF90089510926E0110927C
:100850006D0188EE93E0A0E0B0E080936F0190938B
:100860007001A0937101B09372018AE491E09093BA
:100870006C0180936B0181ED91E0909378018093FE
:1008800077018DE891E090937A018093790185EC6E
:1008900090E090937C0180937B0184EC90E09093B6
:1008A0007E0180937D0180EC90E0909380018093A5
:1008B0007F0181EC90E0909382018093810182EC32
:1008C00090E0909384018093830186EC90E0909374
:1008D00086018093850184E08093870183E0809383
:1008E000880187E08093890185E080938A0181E017
:1008F00080938B0108950E9417020E947D00C0E63C
:10090000D3E00E94AF002097E1F30E946003F9CF8B
:10091000CF92DF92EF92FF920F931F93CF93DF93CB
:100920006C01EB017A01E60EF71E00E010E00BC04F
:100930006991D601ED91FC910190F081E02DC60105
:100940000995080F191FCE15DF0591F7C801DF9132
:10095000CF911F910F91FF90EF90DF90CF9008956E
:100960006115710581F0DB010D900020E9F7AD0103
:1009700041505109461B570BDC01ED91FC9102805F
:10098000F381E02D099480E090E00895AF92BF924A
:10099000CF92DF92EF92FF920F931F93CF93DF934B
:1009A0007C016B0100E010E0C0E0D0E011C0D70195
:1009B000ED91FC91A080B180B801C6010E94B00603
:1009C000682FC701F5010995C80FD91F0F5F1F4F89
:1009D000D60114968D919C9115970817190738F335
:1009E000CE01DF91CF911F910F91FF90EF90DF909B
:1009F000CF90BF90AF9008950C94B004DC01ED91BE
:100A0000FC910190F081E02D09940F931F93CF93F7
:100A1000DF93EC016DE00E94FE048C016AE0CE01E0
:100A20000E94FE049C01200F311FC901DF91CF916C
:100A30001F910F9108950F931F93CF93DF93EC01B4
:100A40000E94B0048C01CE010E9405059801280F78
:100A5000391FC901DF91CF911F910F9108954F92D6
:100A60005F926F927F929F92AF92BF92CF92DF92EE
:100A7000EF92FF920F931F93CF93DF93CDB7DEB723
:100A8000A1970FB6F894DEBF0FBECDBF5C016A011F
:100A90007B01922E19A281E0821710F08AE0982E35
:100AA0008E010F5D1F4F492C512C612C712CC701F9
:100AB000B601A30192010E94D7088C2D929E801945
:100AC0001124015011098A3014F4805D01C0895C41
:100AD000F801808369017A01C114D104E104F104B1
:100AE00031F7B801C5010E94B004A1960FB6F89481
:100AF000DEBF0FBECDBFDF91CF911F910F91FF9051
:100B0000EF90DF90CF90BF90AF909F907F906F90CD
:100B10005F904F9008952115310541F4DC01ED916E
:100B2000FC910190F081E02D642F09940C942F0525
:100B30009A01AB0160E070E00C948B05FC018081B0
:100B400091810C944707CF93DF93EC0188819981C1
:100B5000009711F00E944707198218821D821C829B
:100B60001B821A82DF91CF9108950F931F93CF9329
:100B7000DF93EC018B016F5F7F4F888199810E9429
:100B8000E607009731F0998388831B830A8381E00D
:100B900001C080E0DF91CF911F910F910895CF9315
:100BA000DF93EC0188819981892B31F08A819B81C7
:100BB0008617970708F00CC0CE010E94B505882360
:100BC00049F08C819D81892B19F4E881F98110828B
:100BD00081E001C080E0DF91CF910895EF92FF9214
:100BE0000F931F93CF93DF93EC017B018A01BA012E
:100BF0000E94CF05811104C0CE010E94A30507C049
:100C00001D830C83B701888199810E94D008CE0191
:100C1000DF91CF911F910F91FF90EF900895DC012C
:100C200011961C921E9213961C921E921297159664
:100C30001C921E92149716961C926115710559F01C
:100C4000DB010D900020E9F7AD0141505109461B31
:100C5000570B0C94EE050895CF93DF93EC01FB0145
:100C60008617970761F0608171816115710529F020
:100C7000448155810E94EE0502C00E94A305CE0169
:100C8000DF91CF910895FC011182108213821282AC
:100C90001582148216820C942C06CF93DF93D82FE2
:100CA000C92F6115710561F0DB010D900020E9F796
:100CB000AD0141505109461B570B0E94EE0502C081
:100CC0000E94A3058D2F9C2FDF91CF910895EF9265
:100CD000FF920F931F93CF93DF93EC017B010C8165
:100CE0001D816115710511F480E016C04115510593
:100CF00091F0040F151FB8010E94CF058823A1F3BE
:100D0000288139818C819D81B701820F931F0E94B8
:100D1000D0081D830C8381E0DF91CF911F910F914B
:100D2000FF90EF900895CF93DF93D82FC92F6115CF
:100D3000710569F0DB010D900020E9F7AD0141502C
:100D40005109461B570B0E946706811104C08D2F65
:100D50009C2F0E94A3058D2F9C2FDF91CF9108958A
:100D6000FC01248135816217730748F480819181E9
:100D7000009729F0FC01E60FF71F8081089580E0BD
:100D800008950F931F93CF93DF938230910510F452
:100D900082E090E0E0911502F091160220E030E050
:100DA000C0E0D0E023C04081518148175907A8F026
:100DB0004817590761F482819381209719F09B832A
:100DC0008A832EC0909316028093150229C02115A4
:100DD000310529F04217530710F0A90102C0BE01E6
:100DE000DF0102811381EF019A01F8013097D9F6F2
:100DF0002115310509F1281B390B2430310590F4F8
:100E000012968D919C9113976115710521F0FB014C
:100E10009383828304C09093160280931502FD0190
:100E200032962FC0FD01E20FF31F81939193225060
:100E300031092D933C9325C04DB75EB748575109F2
:100E4000E0910301F0910401E417F507C0F44E1B93
:100E50005F0B4817590798F09C012E5F3F4F4217D0
:100E6000530768F02E0F3F1F3093040120930301B6
:100E700030930201209301018193919302C0E0E03D
:100E8000F0E0CF01DF91CF911F910F910895EF9284
:100E9000FF920F931F93CF93DF93009709F48FC0B6
:100EA000DC01129713961C921E921297E090150285
:100EB000F0901602E114F10489F42D913C91119700
:100EC000280F391F80910301909104018217930725
:100ED00089F5B0930401A093030171C0E70120E0FC
:100EE00030E001C0EA01CA17DB0738F44A815B81B0
:100EF0009E0141155105B1F722C0BC016250710934
:100F0000FB01D383C28300811181AC01400F511FCB
:100F10004C175D0761F448815981400F511F4E5FA6
:100F20005F4F518340834A815B8153834283211504
:100F3000310529F4B0931602A093150240C0F901BF
:100F4000B383A283E90169917991C60FD71FAC17CA
:100F5000BD0779F4DC015E914E91460F571F4E5F3D
:100F60005F4F5183408312968D919C911397938389
:100F70008283A0E0B0E002C0D7017C01F70182814A
:100F800093810097C9F7C701029620813181820FB2
:100F9000931F20910301309104012817390779F438
:100FA000109729F4109216021092150204C013969D
:100FB0001C921E921297F0920401E0920301DF91BD
:100FC000CF911F910F91FF90EF9008958F929F9274
:100FD000AF92BF92CF92DF92EF92FF920F931F9347
:100FE000CF93DF93EC01009779F4CB01DF91CF91A0
:100FF0001F910F91FF90EF90DF90CF90BF90AF9037
:101000009F908F900C94C106DC01A60FB71FFC01C6
:101010003297AE17BF0718F4C0E0D0E0A7C0008138
:10102000118106171707B0F00530110508F49EC0AE
:10103000C80104978617970708F498C00250110951
:10104000061B170B0D931D9371836083CD010E94C6
:1010500047078CC07B01E01AF10A5C01A00EB11EAB
:10106000E0911502F0911602812C912C80E090E025
:101070004CC0EA15FB05F1F5408151816A0122E07F
:10108000C20ED11CCE14DF04A8F19A012E193F091B
:101090007901690132E0C30ED11C2EEFA22EBB24D0
:1010A000BA94AC0EBD1E25E0C216D10478F0428180
:1010B000538113965C934E9312971196FC92EE9285
:1010C000F501718360833A2F2B2F09C00E5F1F4FEC
:1010D000040F151FD5010D931C93328123810097B6
:1010E00021F0FC013283238341C030931502209309
:1010F00016023CC0808191818816990608F44C0143
:1011000052814381CF01E52FF42F309709F0B1CF01
:1011100080910301909104018A159B05C1F4861604
:101120009706A8F48DB79EB788579109A817B907F5
:1011300008F072CFB0930401A0930301B0930201B1
:10114000A0930101FE013297718360830FC0CB0130
:101150000E94C1067C01009709F45ECFA801BE0180
:101160000E94C708CE010E944707E701CE01DF9128
:10117000CF911F910F91FF90EF90DF90CF90BF9094
:10118000AF909F908F900895F8940C94FF08FB0106
:10119000DC0102C001900D9241505040D8F70895F3
:1011A000FB01DC0101900D920020E1F70895A1E21E
:1011B0001A2EAA1BBB1BFD010DC0AA1FBB1FEE1FD1
:1011C000FF1FA217B307E407F50720F0A21BB30B1C
:1011D000E40BF50B661F771F881F991F1A9469F798
:1011E00060957095809590959B01AC01BD01CF01F4
:1011F0000895EE0FFF1F0590F491E02D0994F894E7
:02120000FFCF1E
:1012020001640017025374617274004C4F4E470020
:1012120053484F5254004D454449554D000A5265BA
:101222007374617274696E67002D2D2D2D2D2D2D15
:101232002D2D2D2D2D00203A004B6E6F636B2061FA
:101242007420006D730000000000E80288048A0226
:06125200B9029D02DD025D
:00000001FF
